{
  "contractName": "DeChangeStarter",
  "abi": [
    {
      "inputs": [],
      "payable": false,
      "stateMutability": "nonpayable",
      "type": "constructor"
    },
    {
      "constant": true,
      "inputs": [
        {
          "internalType": "uint256",
          "name": "",
          "type": "uint256"
        }
      ],
      "name": "items",
      "outputs": [
        {
          "internalType": "uint256",
          "name": "id",
          "type": "uint256"
        },
        {
          "internalType": "string",
          "name": "name",
          "type": "string"
        },
        {
          "internalType": "string",
          "name": "category",
          "type": "string"
        },
        {
          "internalType": "uint256",
          "name": "price",
          "type": "uint256"
        }
      ],
      "payable": false,
      "stateMutability": "view",
      "type": "function"
    },
    {
      "constant": false,
      "inputs": [
        {
          "internalType": "uint256",
          "name": "id",
          "type": "uint256"
        },
        {
          "internalType": "string",
          "name": "name",
          "type": "string"
        },
        {
          "internalType": "string",
          "name": "category",
          "type": "string"
        },
        {
          "internalType": "uint256",
          "name": "price",
          "type": "uint256"
        }
      ],
      "name": "additems",
      "outputs": [],
      "payable": false,
      "stateMutability": "nonpayable",
      "type": "function"
    },
    {
      "constant": true,
      "inputs": [],
      "name": "getitems",
      "outputs": [
        {
          "components": [
            {
              "internalType": "uint256",
              "name": "id",
              "type": "uint256"
            },
            {
              "internalType": "string",
              "name": "name",
              "type": "string"
            },
            {
              "internalType": "string",
              "name": "category",
              "type": "string"
            },
            {
              "internalType": "uint256",
              "name": "price",
              "type": "uint256"
            }
          ],
          "internalType": "struct DeChangeStarter.item[]",
          "name": "",
          "type": "tuple[]"
        }
      ],
      "payable": false,
      "stateMutability": "view",
      "type": "function"
    },
    {
      "constant": false,
      "inputs": [
        {
          "internalType": "uint256",
          "name": "id",
          "type": "uint256"
        }
      ],
      "name": "buy",
      "outputs": [],
      "payable": true,
      "stateMutability": "payable",
      "type": "function"
    }
  ],
  "bytecode": "0x6080604052600060025534801561001557600080fd5b50336000806101000a81548173ffffffffffffffffffffffffffffffffffffffff021916908373ffffffffffffffffffffffffffffffffffffffff160217905550610b47806100656000396000f3fe60806040526004361061003f5760003560e01c80633751cc6d146100445780636fb3804f1461006d578063bfb231d214610098578063d96a094a146100d8575b600080fd5b34801561005057600080fd5b5061006b60048036036100669190810190610746565b6100f4565b005b34801561007957600080fd5b50610082610204565b60405161008f919061095c565b60405180910390f35b3480156100a457600080fd5b506100bf60048036036100ba919081019061071d565b6103bb565b6040516100cf949392919061097e565b60405180910390f35b6100f260048036036100ed919081019061071d565b610528565b005b6000809054906101000a900473ffffffffffffffffffffffffffffffffffffffff1673ffffffffffffffffffffffffffffffffffffffff163373ffffffffffffffffffffffffffffffffffffffff161461014d57600080fd5b6001604051806080016040528086815260200185815260200184815260200183815250908060018154018082558091505090600182039060005260206000209060040201600090919290919091506000820151816000015560208201518160010190805190602001906101c192919061060f565b5060408201518160020190805190602001906101de92919061060f565b506060820151816003015550505060026000815480929190600101919050555050505050565b60606001805480602002602001604051908101604052809291908181526020016000905b828210156103b2578382906000526020600020906004020160405180608001604052908160008201548152602001600182018054600181600116156101000203166002900480601f0160208091040260200160405190810160405280929190818152602001828054600181600116156101000203166002900480156102ee5780601f106102c3576101008083540402835291602001916102ee565b820191906000526020600020905b8154815290600101906020018083116102d157829003601f168201915b50505050508152602001600282018054600181600116156101000203166002900480601f0160208091040260200160405190810160405280929190818152602001828054600181600116156101000203166002900480156103905780601f1061036557610100808354040283529160200191610390565b820191906000526020600020905b81548152906001019060200180831161037357829003601f168201915b5050505050815260200160038201548152505081526020019060010190610228565b50505050905090565b600181815481106103c857fe5b9060005260206000209060040201600091509050806000015490806001018054600181600116156101000203166002900480601f01602080910402602001604051908101604052809291908181526020018280546001816001161561010002031660029004801561047a5780601f1061044f5761010080835404028352916020019161047a565b820191906000526020600020905b81548152906001019060200180831161045d57829003601f168201915b505050505090806002018054600181600116156101000203166002900480601f0160208091040260200160405190810160405280929190818152602001828054600181600116156101000203166002900480156105185780601f106104ed57610100808354040283529160200191610518565b820191906000526020600020905b8154815290600101906020018083116104fb57829003601f168201915b5050505050908060030154905084565b600080600090505b60018054905081101561059657826001828154811061054b57fe5b9060005260206000209060040201600001541415610589576001818154811061057057fe5b9060005260206000209060040201600301549150610596565b8080600101915050610530565b503481146105a357600080fd5b6000809054906101000a900473ffffffffffffffffffffffffffffffffffffffff1673ffffffffffffffffffffffffffffffffffffffff166108fc349081150290604051600060405180830381858888f1935050505015801561060a573d6000803e3d6000fd5b505050565b828054600181600116156101000203166002900490600052602060002090601f016020900481019282601f1061065057805160ff191683800117855561067e565b8280016001018555821561067e579182015b8281111561067d578251825591602001919060010190610662565b5b50905061068b919061068f565b5090565b6106b191905b808211156106ad576000816000905550600101610695565b5090565b90565b600082601f8301126106c557600080fd5b81356106d86106d3826109fe565b6109d1565b915080825260208301602083018583830111156106f457600080fd5b6106ff838284610a9a565b50505092915050565b60008135905061071781610aed565b92915050565b60006020828403121561072f57600080fd5b600061073d84828501610708565b91505092915050565b6000806000806080858703121561075c57600080fd5b600061076a87828801610708565b945050602085013567ffffffffffffffff81111561078757600080fd5b610793878288016106b4565b935050604085013567ffffffffffffffff8111156107b057600080fd5b6107bc878288016106b4565b92505060606107cd87828801610708565b91505092959194509250565b60006107e583836108d4565b905092915050565b60006107f882610a3a565b6108028185610a5d565b93508360208202850161081485610a2a565b8060005b85811015610850578484038952815161083185826107d9565b945061083c83610a50565b925060208a01995050600181019050610818565b50829750879550505050505092915050565b600061086d82610a45565b6108778185610a6e565b9350610887818560208601610aa9565b61089081610adc565b840191505092915050565b60006108a682610a45565b6108b08185610a7f565b93506108c0818560208601610aa9565b6108c981610adc565b840191505092915050565b60006080830160008301516108ec600086018261093e565b50602083015184820360208601526109048282610862565b9150506040830151848203604086015261091e8282610862565b9150506060830151610933606086018261093e565b508091505092915050565b61094781610a90565b82525050565b61095681610a90565b82525050565b6000602082019050818103600083015261097681846107ed565b905092915050565b6000608082019050610993600083018761094d565b81810360208301526109a5818661089b565b905081810360408301526109b9818561089b565b90506109c8606083018461094d565b95945050505050565b6000604051905081810181811067ffffffffffffffff821117156109f457600080fd5b8060405250919050565b600067ffffffffffffffff821115610a1557600080fd5b601f19601f8301169050602081019050919050565b6000819050602082019050919050565b600081519050919050565b600081519050919050565b6000602082019050919050565b600082825260208201905092915050565b600082825260208201905092915050565b600082825260208201905092915050565b6000819050919050565b82818337600083830152505050565b60005b83811015610ac7578082015181840152602081019050610aac565b83811115610ad6576000848401525b50505050565b6000601f19601f8301169050919050565b610af681610a90565b8114610b0157600080fd5b5056fea365627a7a72315820f1d3f3983fef9b4bf0d53e33eefecea473dd25aa41fc6ab480bcc8a57f97195f6c6578706572696d656e74616cf564736f6c63430005100040",
  "source": "pragma solidity ^0.5.1;\r\npragma experimental ABIEncoderV2;\r\ncontract DeChangeStarter\r\n{\r\n    struct item\r\n    {\r\n        uint id;\r\n        string name;\r\n        string category;\r\n        uint price;\r\n    }\r\n        address payable owner;\r\n        constructor() public {\r\n           owner = msg.sender;\r\n   }\r\n     modifier onlyOwner {\r\n       require(msg.sender==owner);\r\n       _;\r\n   }\r\n    item[] public items;\r\n    uint itemcount=0;\r\n    function additems(uint id, string memory name, string memory category, uint price) public onlyOwner\r\n    {\r\n        items.push(item(id,name,category,price));\r\n        itemcount++;\r\n    }\r\n    function getitems() public view returns (item[] memory)\r\n    {\r\n        return items;\r\n    }\r\n    function buy(uint id) public payable\r\n     {\r\n        uint amount;\r\n        for(uint i=0;i<items.length;i++)\r\n        {\r\n            if((items[i]).id==id)\r\n            {\r\n                amount = items[i].price;\r\n                break;\r\n            }\r\n        }\r\n        require(amount==msg.value);\r\n        owner.transfer(msg.value);\r\n    }\r\n}\r\n",
  "sourcePath": "C:/Users/gaura/DeChange/client/contracts/DeChange_Starter.sol",
  "compiler": {
    "name": "solc",
    "version": "0.5.16+commit.9c3226ce.Emscripten.clang"
  },
  "schemaVersion": "3.3.3",
  "updatedAt": "2021-02-08T16:43:13.524Z",
  "devdoc": {
    "methods": {}
  },
  "userdoc": {
    "methods": {}
  }
}