{
  "contractName": "DeChange_Starter",
  "abi": [
    {
      "inputs": [],
      "payable": false,
      "stateMutability": "nonpayable",
      "type": "constructor"
    },
    {
      "constant": true,
      "inputs": [
        {
          "internalType": "uint256",
          "name": "",
          "type": "uint256"
        }
      ],
      "name": "items",
      "outputs": [
        {
          "internalType": "uint256",
          "name": "id",
          "type": "uint256"
        },
        {
          "internalType": "string",
          "name": "name",
          "type": "string"
        },
        {
          "internalType": "string",
          "name": "category",
          "type": "string"
        },
        {
          "internalType": "uint256",
          "name": "price",
          "type": "uint256"
        },
        {
          "internalType": "uint256",
          "name": "qty",
          "type": "uint256"
        }
      ],
      "payable": false,
      "stateMutability": "view",
      "type": "function"
    },
    {
      "constant": false,
      "inputs": [
        {
          "internalType": "uint256",
          "name": "id",
          "type": "uint256"
        },
        {
          "internalType": "string",
          "name": "name",
          "type": "string"
        },
        {
          "internalType": "string",
          "name": "category",
          "type": "string"
        },
        {
          "internalType": "uint256",
          "name": "price",
          "type": "uint256"
        },
        {
          "internalType": "uint256",
          "name": "qty",
          "type": "uint256"
        }
      ],
      "name": "additems",
      "outputs": [],
      "payable": false,
      "stateMutability": "nonpayable",
      "type": "function"
    },
    {
      "constant": true,
      "inputs": [],
      "name": "getitems",
      "outputs": [
        {
          "components": [
            {
              "internalType": "uint256",
              "name": "id",
              "type": "uint256"
            },
            {
              "internalType": "string",
              "name": "name",
              "type": "string"
            },
            {
              "internalType": "string",
              "name": "category",
              "type": "string"
            },
            {
              "internalType": "uint256",
              "name": "price",
              "type": "uint256"
            },
            {
              "internalType": "uint256",
              "name": "qty",
              "type": "uint256"
            }
          ],
          "internalType": "struct DeChange_Starter.item[]",
          "name": "",
          "type": "tuple[]"
        }
      ],
      "payable": false,
      "stateMutability": "view",
      "type": "function"
    },
    {
      "constant": false,
      "inputs": [
        {
          "internalType": "uint256",
          "name": "id",
          "type": "uint256"
        }
      ],
      "name": "buy",
      "outputs": [],
      "payable": true,
      "stateMutability": "payable",
      "type": "function"
    },
    {
      "constant": false,
      "inputs": [],
      "name": "clear",
      "outputs": [],
      "payable": false,
      "stateMutability": "nonpayable",
      "type": "function"
    }
  ],
  "bytecode": "0x608060405234801561001057600080fd5b50336000806101000a81548173ffffffffffffffffffffffffffffffffffffffff021916908373ffffffffffffffffffffffffffffffffffffffff160217905550610e79806100606000396000f3fe60806040526004361061004a5760003560e01c80632f8196551461004f57806352efea6e146100785780636fb3804f1461008f578063bfb231d2146100ba578063d96a094a146100fb575b600080fd5b34801561005b57600080fd5b50610076600480360361007191908101906109e3565b610117565b005b34801561008457600080fd5b5061008d610226565b005b34801561009b57600080fd5b506100a4610291565b6040516100b19190610c60565b60405180910390f35b3480156100c657600080fd5b506100e160048036036100dc91908101906109ba565b610452565b6040516100f2959493929190610ca2565b60405180910390f35b610115600480360361011091908101906109ba565b6105c5565b005b6000809054906101000a900473ffffffffffffffffffffffffffffffffffffffff1673ffffffffffffffffffffffffffffffffffffffff163373ffffffffffffffffffffffffffffffffffffffff161461017057600080fd5b60016040518060a0016040528087815260200186815260200185815260200184815260200183815250908060018154018082558091505090600182039060005260206000209060050201600090919290919091506000820151816000015560208201518160010190805190602001906101ea9291906107db565b5060408201518160020190805190602001906102079291906107db565b5060608201518160030155608082015181600401555050505050505050565b6000809054906101000a900473ffffffffffffffffffffffffffffffffffffffff1673ffffffffffffffffffffffffffffffffffffffff163373ffffffffffffffffffffffffffffffffffffffff161461027f57600080fd5b600060018161028e919061085b565b50565b60606001805480602002602001604051908101604052809291908181526020016000905b8282101561044957838290600052602060002090600502016040518060a001604052908160008201548152602001600182018054600181600116156101000203166002900480601f01602080910402602001604051908101604052809291908181526020018280546001816001161561010002031660029004801561037b5780601f106103505761010080835404028352916020019161037b565b820191906000526020600020905b81548152906001019060200180831161035e57829003601f168201915b50505050508152602001600282018054600181600116156101000203166002900480601f01602080910402602001604051908101604052809291908181526020018280546001816001161561010002031660029004801561041d5780601f106103f25761010080835404028352916020019161041d565b820191906000526020600020905b81548152906001019060200180831161040057829003601f168201915b5050505050815260200160038201548152602001600482015481525050815260200190600101906102b5565b50505050905090565b6001818154811061045f57fe5b9060005260206000209060050201600091509050806000015490806001018054600181600116156101000203166002900480601f0160208091040260200160405190810160405280929190818152602001828054600181600116156101000203166002900480156105115780601f106104e657610100808354040283529160200191610511565b820191906000526020600020905b8154815290600101906020018083116104f457829003601f168201915b505050505090806002018054600181600116156101000203166002900480601f0160208091040260200160405190810160405280929190818152602001828054600181600116156101000203166002900480156105af5780601f10610584576101008083540402835291602001916105af565b820191906000526020600020905b81548152906001019060200180831161059257829003601f168201915b5050505050908060030154908060040154905085565b3373ffffffffffffffffffffffffffffffffffffffff166000809054906101000a900473ffffffffffffffffffffffffffffffffffffffff1673ffffffffffffffffffffffffffffffffffffffff16141561061f57600080fd5b60008060008090505b6001805490508110156106bc57836001828154811061064357fe5b90600052602060002090600502016000015414156106af5760006001828154811061066a57fe5b9060005260206000209060050201600401541161068657600080fd5b6001818154811061069357fe5b90600052602060002090600502016003015492508091506106bc565b8080600101915050610628565b506000600182815481106106cc57fe5b9060005260206000209060050201600401541161071e576040517f08c379a000000000000000000000000000000000000000000000000000000000815260040161071590610c82565b60405180910390fd5b8134101561072b57600080fd5b6000809054906101000a900473ffffffffffffffffffffffffffffffffffffffff1673ffffffffffffffffffffffffffffffffffffffff166108fc349081150290604051600060405180830381858888f19350505050158015610792573d6000803e3d6000fd5b5060018082815481106107a157fe5b90600052602060002090600502016004015403600182815481106107c157fe5b906000526020600020906005020160040181905550505050565b828054600181600116156101000203166002900490600052602060002090601f016020900481019282601f1061081c57805160ff191683800117855561084a565b8280016001018555821561084a579182015b8281111561084957825182559160200191906001019061082e565b5b509050610857919061088d565b5090565b8154818355818111156108885760050281600502836000526020600020918201910161088791906108b2565b5b505050565b6108af91905b808211156108ab576000816000905550600101610893565b5090565b90565b61090691905b80821115610902576000808201600090556001820160006108d99190610909565b6002820160006108e99190610909565b60038201600090556004820160009055506005016108b8565b5090565b90565b50805460018160011615610100020316600290046000825580601f1061092f575061094e565b601f01602090049060005260206000209081019061094d919061088d565b5b50565b600082601f83011261096257600080fd5b813561097561097082610d30565b610d03565b9150808252602083016020830185838301111561099157600080fd5b61099c838284610dcc565b50505092915050565b6000813590506109b481610e1f565b92915050565b6000602082840312156109cc57600080fd5b60006109da848285016109a5565b91505092915050565b600080600080600060a086880312156109fb57600080fd5b6000610a09888289016109a5565b955050602086013567ffffffffffffffff811115610a2657600080fd5b610a3288828901610951565b945050604086013567ffffffffffffffff811115610a4f57600080fd5b610a5b88828901610951565b9350506060610a6c888289016109a5565b9250506080610a7d888289016109a5565b9150509295509295909350565b6000610a968383610bc5565b905092915050565b6000610aa982610d6c565b610ab38185610d8f565b935083602082028501610ac585610d5c565b8060005b85811015610b015784840389528151610ae28582610a8a565b9450610aed83610d82565b925060208a01995050600181019050610ac9565b50829750879550505050505092915050565b6000610b1e82610d77565b610b288185610da0565b9350610b38818560208601610ddb565b610b4181610e0e565b840191505092915050565b6000610b5782610d77565b610b618185610db1565b9350610b71818560208601610ddb565b610b7a81610e0e565b840191505092915050565b6000610b92601283610db1565b91507f4974656d206e6f7420617661696c61626c6500000000000000000000000000006000830152602082019050919050565b600060a083016000830151610bdd6000860182610c42565b5060208301518482036020860152610bf58282610b13565b91505060408301518482036040860152610c0f8282610b13565b9150506060830151610c246060860182610c42565b506080830151610c376080860182610c42565b508091505092915050565b610c4b81610dc2565b82525050565b610c5a81610dc2565b82525050565b60006020820190508181036000830152610c7a8184610a9e565b905092915050565b60006020820190508181036000830152610c9b81610b85565b9050919050565b600060a082019050610cb76000830188610c51565b8181036020830152610cc98187610b4c565b90508181036040830152610cdd8186610b4c565b9050610cec6060830185610c51565b610cf96080830184610c51565b9695505050505050565b6000604051905081810181811067ffffffffffffffff82111715610d2657600080fd5b8060405250919050565b600067ffffffffffffffff821115610d4757600080fd5b601f19601f8301169050602081019050919050565b6000819050602082019050919050565b600081519050919050565b600081519050919050565b6000602082019050919050565b600082825260208201905092915050565b600082825260208201905092915050565b600082825260208201905092915050565b6000819050919050565b82818337600083830152505050565b60005b83811015610df9578082015181840152602081019050610dde565b83811115610e08576000848401525b50505050565b6000601f19601f8301169050919050565b610e2881610dc2565b8114610e3357600080fd5b5056fea365627a7a72315820da8e28cdaee3232a23dbb87bff5eb11688533cb9a6698a71a92394aa203f524d6c6578706572696d656e74616cf564736f6c63430005100040",
  "source": "pragma solidity ^0.5.1;\r\npragma experimental ABIEncoderV2;\r\ncontract DeChange_Starter\r\n{\r\n    struct item\r\n    {\r\n        uint id;\r\n        string name;\r\n        string category;\r\n        uint price;\r\n        uint qty;\r\n    }\r\n        address payable owner;\r\n        constructor() public {\r\n           owner = msg.sender;\r\n   }\r\n     modifier onlyOwner {\r\n       require(msg.sender==owner);\r\n       _;\r\n   }\r\n    item[] public items;\r\n    function additems(uint id, string memory name, string memory category, uint price, uint qty) public onlyOwner\r\n    {\r\n        items.push(item(id,name,category,price,qty));\r\n    }\r\n    function getitems() public view returns (item[] memory)\r\n    {\r\n        return items;\r\n    }\r\n    function buy(uint id) public payable\r\n     {\r\n        require(owner!=msg.sender);\r\n        uint amount;\r\n        uint p;\r\n        for(uint i=0;i<items.length;i++)\r\n        {\r\n            if((items[i]).id==id)\r\n            {\r\n                require(items[i].qty>0);\r\n                amount = items[i].price;\r\n                p=i;\r\n                break;\r\n            }\r\n        }\r\n        require(items[p].qty>0, 'Item not available');\r\n        require(msg.value>=amount);\r\n        owner.transfer(msg.value);\r\n        items[p].qty=(items[p].qty)-1;\r\n\r\n    }\r\n    function clear() public onlyOwner\r\n    {\r\n        items.length=0;\r\n    }\r\n}\r\n",
  "sourcePath": "C:/Users/gaura/DeChange/contracts/DeChange_Starter.sol",
  "compiler": {
    "name": "solc",
    "version": "0.5.16+commit.9c3226ce.Emscripten.clang"
  },
  "schemaVersion": "3.3.3",
  "updatedAt": "2021-02-10T09:58:10.803Z",
  "networkType": "ethereum",
  "devdoc": {
    "methods": {}
  },
  "userdoc": {
    "methods": {}
  }
}